:100000000C945D000C9485000C9485000C94850084
:100010000C9485000C9485000C9485000C9485004C
:100020000C9485000C9485000C9485000C9485003C
:100030000C9485000C9485000C9485000C9485002C
:100040000C94A8030C9485000C9485000C948500F6
:100050000C9485000C9485000C9485000C9485000C
:100060000C9485000C94850000000008000201003B
:100070000003040700000000000000000000000072
:10008000250028002B0000000000240027002A0083
:10009000040404040404040402020202020203032E
:1000A0000303030301020408102040800102040836
:1000B00010200102040810206A0611241FBECFEF91
:1000C000D8E0DEBFCDBF11E0A0E0B1E0EAEEF1E1A3
:1000D00002C005900D92AE32B107D9F721E0AEE231
:1000E000B1E001C01D92A736B207E1F710E0CDE5FF
:1000F000D0E004C02197FE010E94ED08CC35D10765
:10010000C9F70E94F2030C94F3080C94000090E0ED
:10011000FC01EC55FF4F249180579F4FFC018491C7
:10012000882399F090E0880F991FFC01EA57FF4F50
:10013000A591B491FC01E458FF4F859194918FB73C
:10014000F894EC91E22BEC938FBF0895AF92BF929D
:10015000CF92DF92EF92FF920F931F93CF93DF9393
:100160006C017B018B01040F151FEB015E01AE18C2
:10017000BF08C017D10759F06991D601ED91FC91E4
:100180000190F081E02DC6010995892B79F7C50111
:10019000DF91CF911F910F91FF90EF90DF90CF9063
:1001A000BF90AF90089590E0FC01E859FF4F249173
:1001B000FC01EC55FF4F3491FC01E057FF4FE491F7
:1001C000EE23C9F0222339F0233001F1A8F42130C5
:1001D00019F1223029F1F0E0EE0FFF1FE458FF4F34
:1001E000A591B4918FB7F894EC91611126C0309528
:1001F0003E233C938FBF08952730A9F02830C9F0E3
:10020000243049F7809180008F7D03C08091800069
:100210008F7780938000DFCF84B58F7784BDDBCF6D
:1002200084B58F7DFBCF8091B0008F778093B00035
:10023000D2CF8091B0008F7DF9CF3E2BDACF8E5098
:10024000806480937C0080917A00806480937A003F
:1002500080917A0086FDFCCF8091780090917900A2
:100260000895089590E080E00895FC010190002039
:10027000E9F73197AF01481B590BBC018FE491E0BE
:100280000C94A6008F929F92AF92BF920F931F93F0
:10029000CF93DF93CDB7DEB7A1970FB6F894DEBF4B
:1002A0000FBECDBF19A2423008F44AE08E010F5DA7
:1002B0001F4F842E912CB12CA12CA50194010E94DA
:1002C000CB08E62FB901CA01EA30F4F4E05DD801A9
:1002D000EE938D01232B242B252B79F790E080E0E2
:1002E000109719F0CD010E943501A1960FB6F89430
:1002F000DEBF0FBECDBFDF91CF911F910F91BF9099
:10030000AF909F908F900895E95CE1CFCF93DF93FA
:10031000EC0160E08E810E94D30061E08E810E943A
:10032000D30060E08E810E94D3008BE891E00197BA
:10033000F1F7DF91CF910895CF92DF92EF92FF9284
:100340000F931F93CF93DF936C017C0187E0E80E3E
:10035000F11CD0E0C0E0062F10E0B8010C2E02C066
:10036000759567950A94E2F76170F70181917F01B5
:100370000E94D3002196C430D10579F7C601DF91E0
:10038000CF911F910F91FF90EF90DF90CF900C9441
:100390008601CF92DF92EF92FF920F931F93CF933C
:1003A000DF93EC01F62E642F8C810E94D3008D81A7
:1003B0008F3F19F060E00E94D3000F2D10E08F8571
:1003C00084FF25C06E0187E0C80ED11CF12CE12C02
:1003D000B8010E2C02C0759567950A94E2F761701A
:1003E000F60181916F010E94D300FFEFEF1AFF0A1F
:1003F00088E0E816F10461F7CE01DF91CF911F91FB
:100400000F91FF90EF90DF90CF900C948601B80190
:1004100084E0759567958A95E1F7CE010E949C016D
:100420006F2DCE01DF91CF911F910F91FF90EF9033
:10043000DF90CF900C949C0140E0682F8FE491E016
:100440000C94C901CF93DF93823029F490915E011F
:10045000986090935E01809362011092630180E442
:100460008093640180E18093650180E5809366015B
:10047000809153010E948700809154018F3F11F0B9
:100480000E948700809155010E948700CFE4D1E04F
:100490009E012F54314080915E0184FD0AC084E0AA
:1004A00090E02196281739073CF48E810E9487003E
:1004B000EFCF88E090E0F5CF8BE39DE00197F1F777
:1004C00060E0809153010E94D30060E0809155016B
:1004D0000E94D300809154018F3F19F060E00E9488
:1004E000D30080915E0184FD39C063E08FE491E028
:1004F0000E949C01CBE4D6E4CE010197F1F763E0C2
:100500008FE491E00E949C012197F1F763E08FE472
:1005100091E00E949C0183E592E00197F1F762E08F
:100520008FE491E00E949C0180915E0180620E94B4
:100530001C0284E080935F018CE00E941C0281E039
:100540000E941C028BE39FE10197F1F782E0809308
:10055000600186E0DF91CF910C941C0280620E94C2
:100560001C028BE496E40197F1F780915E018062B2
:100570000E941C0283E592E00197F1F780915E01F1
:1005800080620E941C02D0CF41E00E94C90181E03C
:1005900090E008954F925F926F927F928F929F9218
:1005A000AF92BF92CF92DF92EF92FF920F931F9381
:1005B000CF936B017C01742EAC019B010E94C60895
:1005C000882399F080E191E0CF911F910F91FF90E6
:1005D000EF90DF90CF90BF90AF909F908F907F90E3
:1005E0006F905F904F900C94350146015701E8944D
:1005F000B7F82FEF3FEF4FE75FE7C501B4010E9467
:10060000C60881110DC02FEF3FEF4FE75FE7C5012F
:10061000B4010E94F50618161CF484E191E0D4CFD1
:100620002FEF3FEF4FE75FE4C701B6010E94540888
:1006300018161CF488E191E0C7CF2FEF3FEF4FE78A
:100640005FECC701B6010E94F50687FDF3CF20E0FD
:1006500030E0A901C701B6010E94F50610E000E0F4
:1006600087FF0CC041E06DE28FE491E00E94C90178
:10067000F7FAF094F7F8F09401E010E0C0E060E0E1
:1006800070E080E09FE37C1641F020E030E040E243
:1006900051E40E94FA06CF5FF6CFA70196010E94AF
:1006A00089064B015C010E9473072B013C014AE063
:1006B0000E944201080F191FCC23C9F1C301B201E6
:1006C0000E94A2079B01AC01C501B4010E948806EB
:1006D0004B015C0141E06EE28FE491E00E94C901B0
:1006E0000F5F1F4FC15018F120E030E040E251E4AD
:1006F000C501B4010E9459082B013C010E947307F7
:100700004B01B12CA12C4AE0C501B4010E94420169
:10071000080F191FC501B4010E94A2079B01AC017B
:10072000C301B2010E9488064B015C01DBCFC80106
:10073000CF911F910F91FF90EF90DF90CF90BF90DE
:10074000AF909F908F907F906F905F904F900895A3
:100750001F920F920FB60F9211242F933F938F93F6
:100760009F93AF93BF938091330190913401A091F7
:100770003501B09136013091320123E0230F2D373E
:1007800058F50196A11DB11D2093320180933301CC
:1007900090933401A0933501B093360180912E01DE
:1007A00090912F01A0913001B09131010196A11DCE
:1007B000B11D80932E0190932F01A0933001B0932F
:1007C0003101BF91AF919F918F913F912F910F90E8
:1007D0000FBE0F901F90189526E8230F0296A11DBB
:1007E000B11DD2CFCF93DF93CDB7DEB728970FB629
:1007F000F894DEBF0FBECDBF789484B5826084BD0F
:1008000084B5816084BD85B5826085BD85B5816014
:1008100085BD80916E00816080936E001092810092
:10082000809181008260809381008091810081604D
:10083000809381008091800081608093800080910E
:10084000B10084608093B1008091B000816080939A
:10085000B00080917A00846080937A0080917A0061
:10086000826080937A0080917A00816080937A0020
:1008700080917A00806880937A001092C10086E0AF
:100880000E94870082E00E9422020EE610E08EE0C5
:100890000E941F01BC01990F880B990B0E94A407AD
:1008A0006B017C01C0924B01D0924C01E0924D0152
:1008B000F0924E018FE00E941F015C0120E030E0C9
:1008C00040EA50E4C701B6010E94590820E030EC2C
:1008D0004FE754E40E94FA0620E030E040EA50E49A
:1008E0000E9459086B017C01C0924701D0924801D7
:1008F000E0924901F0924A01B501BB0C880B990BBB
:100900000E94A40720E030E040EA50E40E94590829
:1009100020E030EC4FE754E40E94FA064B015C0102
:100920008092430190924401A0924501B092460109
:10093000E1E0809162018111E0E0E195F0E0E15BAE
:10094000FE4F848980680E941C02A5019401C701A2
:10095000B6010E94590860933F0170934001809353
:100960004101909342018CE191E00E943501609138
:100970003F0170914001809141019091420142E01C
:100980000E94CA0281E291E00E943501E091620179
:10099000E23008F0FFC0E150F0E0E15BFE4F8489F7
:1009A00080680E941C0283E291E00E943501609100
:1009B0004701709148018091490190914A0142E0BC
:1009C0000E94CA0286E291E00E94350160914301D3
:1009D00070914401809145019091460142E00E944E
:1009E000CA028BE291E00E9435018091430190910F
:1009F0004401A0914501B091460189839A83AB835C
:100A0000BC8320913B0130913C0140913D015091CC
:100A10003E01BC01CD010E9488066B017C018091E2
:100A2000470190914801A0914901B0914A018D83FD
:100A30009E83AF83B8872091370130913801409170
:100A4000390150913A01BC01CD010E9488064B0149
:100A50005C0120E030E0A9010E94F5068111A1C0EF
:100A600020E030E0A901C701B6010E94F506882305
:100A700011F18090000190900101A0900201B090CE
:100A8000030120E030E0A901C701B6010E9454082B
:100A900023E333E343EB5FE318160CF07DC0C5019D
:100AA000B4010E9488066093000170930101809355
:100AB0000201909303018D819E81AF81B88580935F
:100AC000370190933801A0933901B0933A0189819D
:100AD0009A81AB81BC8180933B0190933C01A093B0
:100AE0003D01B0933E0120E030E040E753E46091E7
:100AF00000017091010180910201909103010E9417
:100B00005408181664F480E090E0A0E7B3E4809302
:100B1000000190930101A0930201B093030120E032
:100B200030E040E751E46091000170910101809153
:100B30000201909103010E94F50687FF0CC080E03E
:100B400090E0A0E7B1E48093000190930101A093AD
:100B50000201B09303016091000170910101809145
:100B60000201909103010E946C076B015B0186E01A
:100B70000E948700C114D10409F064C060E086E0DF
:100B80000E94D30080E090E0892B09F480CE0E947F
:100B900000007DCEE1E000CFC501B4010E948906CE
:100BA00082CF2D813E814F815885C701B6010E94B9
:100BB00059082B013C01A501940169817A818B813F
:100BC0009C810E9459089B01AC01C301B2010E94A3
:100BD000890620E030E0A9010E94F506882309F487
:100BE0006ACF409000015090010160900201709026
:100BF0000301A5019401C701B6010E94FA066B0129
:100C00007C012D813E814F81588569817A818B815C
:100C10009C810E94FA069B01AC01C701B6010E94AB
:100C2000890620E030E0A9010E94540823E333E361
:100C300043EB5FE318161CF4C301B20132CFC301CA
:100C4000B201ACCF9FEFC916D10411F461E097CF88
:100C5000F8018491833021F148F48130B9F0823079
:100C6000D1F0F0E8AF16B1048CF788CF873011F1DE
:100C7000883041F18430A9F78091800080628093B0
:100C80008000D0928B00C0928A007CCF84B58068AF
:100C900084BDC7BC77CF84B5806284BDC8BC72CF29
:100CA00080918000806880938000D0928900C092FB
:100CB000880068CF8091B00080688093B000C092B7
:100CC000B30060CF8091B00080628093B000C0928A
:100CD000B40058CFEFE4F1E01382128288E091E093
:100CE000918380838CE084838FEF85838BE0868380
:100CF00085E0878384E0808783E0818782E0828744
:100D00001386148615861686178681E00C942202B7
:100D10005058BB27AA270E94A0060C941A080E94CC
:100D20000C0838F00E94130820F039F49F3F19F4A2
:100D300026F40C9409080EF4E095E7FB0C940308E4
:100D4000E92F0E942B0858F3BA176207730784072C
:100D5000950720F079F4A6F50C944D080EF4E09573
:100D60000B2EBA2FA02D0B01B90190010C01CA0165
:100D7000A0011124FF27591B99F0593F50F4503E10
:100D800068F11A16F040A22F232F342F4427585F02
:100D9000F3CF469537952795A795F0405395C9F71A
:100DA0007EF41F16BA0B620B730B840BBAF09150D2
:100DB000A1F0FF0FBB1F661F771F881FC2F70EC071
:100DC000BA0F621F731F841F48F487957795679544
:100DD000B795F7959E3F08F0B0CF9395880F08F030
:100DE0009927EE0F9795879508950E94DF0708F4DD
:100DF00081E008950E940E070C941A080E941308BF
:100E000058F00E940C0840F029F45F3F29F00C9440
:100E1000030851110C944E080C9409080E942B08E9
:100E200068F39923B1F3552391F3951B550BBB2719
:100E3000AA2762177307840738F09F5F5F4F220F5E
:100E4000331F441FAA1FA9F335D00E2E3AF0E0E855
:100E500032D091505040E695001CCAF72BD0FE2F9F
:100E600029D0660F771F881FBB1F26173707480733
:100E7000AB07B0E809F0BB0B802DBF01FF279358EB
:100E80005F4F3AF09E3F510578F00C9403080C94A4
:100E90004E085F3FE4F3983ED4F3869577956795C7
:100EA000B795F7959F5FC9F7880F911D9695879520
:100EB00097F90895E1E0660F771F881FBB1F62173F
:100EC00073078407BA0720F0621B730B840BBA0BFD
:100ED000EE1F88F7E09508950E9473076894B1119A
:100EE0000C944E0808950E94330888F09F5798F09C
:100EF000B92F9927B751B0F0E1F0660F771F881F1F
:100F0000991F1AF0BA95C9F714C0B13091F00E9438
:100F10004D08B1E008950C944D08672F782F88276D
:100F2000B85F39F0B93FCCF3869577956795B3955F
:100F3000D9F73EF490958095709561957F4F8F4FCE
:100F40009F4F0895E89409C097FB3EF490958095D3
:100F5000709561957F4F8F4F9F4F9923A9F0F92F7F
:100F600096E9BB279395F695879577956795B795FD
:100F7000F111F8CFFAF4BB0F11F460FF1BC06F5FE3
:100F80007F4F8F4F9F4F16C0882311F096E911C0F5
:100F9000772321F09EE8872F762F05C0662371F016
:100FA00096E8862F70E060E02AF09A95660F771F2A
:100FB000881FDAF7880F9695879597F90895990F06
:100FC0000008550FAA0BE0E8FEEF16161706E80713
:100FD000F907C0F012161306E407F50798F0621B34
:100FE000730B840B950B39F40A2661F0232B242B09
:100FF000252B21F408950A2609F4A140A6958FEF28
:10100000811D811D089597F99F6780E870E060E079
:1010100008959FEF80EC089500240A941616170691
:1010200018060906089500240A94121613061406D9
:1010300005060895092E0394000C11F4882352F03C
:10104000BB0F40F4BF2B11F460FF04C06F5F7F4FF4
:101050008F4F9F4F089557FD9058440F551F59F0DB
:101060005F3F71F04795880F97FB991F61F09F3F95
:1010700079F087950895121613061406551FF2CFBE
:101080004695F1DF08C0161617061806991FF1CF0E
:1010900086957105610508940895E894BB27662735
:1010A0007727CB0197F908950E94DF0708F48FEFA7
:1010B00008950E946C080C941A080E940C0838F0DD
:1010C0000E94130820F0952311F00C9403080C944F
:1010D000090811240C944E080E942B0870F3959F68
:1010E000C1F3950F50E0551F629FF001729FBB271F
:1010F000F00DB11D639FAA27F00DB11DAA1F649FBB
:101100006627B00DA11D661F829F2227B00DA11D6D
:10111000621F739FB00DA11D621F839FA00D611DF3
:10112000221F749F3327A00D611D231F849F600D14
:10113000211D822F762F6A2F11249F5750409AF03D
:10114000F1F088234AF0EE0FFF1FBB1F661F771FC9
:10115000881F91505040A9F79E3F510580F00C9494
:1011600003080C944E085F3FE4F3983ED4F3869551
:1011700077956795B795F795E7959F5FC1F7FE2B34
:10118000880F911D9695879597F908950E94DF071E
:10119000880B990B0895A1E21A2EAA1BBB1BFD0117
:1011A0000DC0AA1FBB1FEE1FFF1FA217B307E40746
:1011B000F50720F0A21BB30BE40BF50B661F771F9E
:1011C000881F991F1A9469F760957095809590957E
:1011D0009B01AC01BD01CF010895EE0FFF1F0590EB
:0A11E000F491E02D0994F894FFCF7C
:1011EA000000004300000000C402A60032013101E1
:1011FA006E616E00696E66006F7666005070763DAD
:0E120A00005700563D005620493D00410000AF
:00000001FF
